{
  "_format": "hh-sol-artifact-1",
  "contractName": "MyNFT",
  "sourceName": "contracts/NFT.sol",
  "abi": [
    {
      "inputs": [],
      "stateMutability": "nonpayable",
      "type": "constructor"
    },
    {
      "inputs": [
        {
          "internalType": "address",
          "name": "sender",
          "type": "address"
        },
        {
          "internalType": "uint256",
          "name": "tokenId",
          "type": "uint256"
        },
        {
          "internalType": "address",
          "name": "owner",
          "type": "address"
        }
      ],
      "name": "ERC721IncorrectOwner",
      "type": "error"
    },
    {
      "inputs": [
        {
          "internalType": "address",
          "name": "operator",
          "type": "address"
        },
        {
          "internalType": "uint256",
          "name": "tokenId",
          "type": "uint256"
        }
      ],
      "name": "ERC721InsufficientApproval",
      "type": "error"
    },
    {
      "inputs": [
        {
          "internalType": "address",
          "name": "approver",
          "type": "address"
        }
      ],
      "name": "ERC721InvalidApprover",
      "type": "error"
    },
    {
      "inputs": [
        {
          "internalType": "address",
          "name": "operator",
          "type": "address"
        }
      ],
      "name": "ERC721InvalidOperator",
      "type": "error"
    },
    {
      "inputs": [
        {
          "internalType": "address",
          "name": "owner",
          "type": "address"
        }
      ],
      "name": "ERC721InvalidOwner",
      "type": "error"
    },
    {
      "inputs": [
        {
          "internalType": "address",
          "name": "receiver",
          "type": "address"
        }
      ],
      "name": "ERC721InvalidReceiver",
      "type": "error"
    },
    {
      "inputs": [
        {
          "internalType": "address",
          "name": "sender",
          "type": "address"
        }
      ],
      "name": "ERC721InvalidSender",
      "type": "error"
    },
    {
      "inputs": [
        {
          "internalType": "uint256",
          "name": "tokenId",
          "type": "uint256"
        }
      ],
      "name": "ERC721NonexistentToken",
      "type": "error"
    },
    {
      "inputs": [
        {
          "internalType": "address",
          "name": "owner",
          "type": "address"
        }
      ],
      "name": "OwnableInvalidOwner",
      "type": "error"
    },
    {
      "inputs": [
        {
          "internalType": "address",
          "name": "account",
          "type": "address"
        }
      ],
      "name": "OwnableUnauthorizedAccount",
      "type": "error"
    },
    {
      "anonymous": false,
      "inputs": [
        {
          "indexed": true,
          "internalType": "address",
          "name": "owner",
          "type": "address"
        },
        {
          "indexed": true,
          "internalType": "address",
          "name": "approved",
          "type": "address"
        },
        {
          "indexed": true,
          "internalType": "uint256",
          "name": "tokenId",
          "type": "uint256"
        }
      ],
      "name": "Approval",
      "type": "event"
    },
    {
      "anonymous": false,
      "inputs": [
        {
          "indexed": true,
          "internalType": "address",
          "name": "owner",
          "type": "address"
        },
        {
          "indexed": true,
          "internalType": "address",
          "name": "operator",
          "type": "address"
        },
        {
          "indexed": false,
          "internalType": "bool",
          "name": "approved",
          "type": "bool"
        }
      ],
      "name": "ApprovalForAll",
      "type": "event"
    },
    {
      "anonymous": false,
      "inputs": [
        {
          "indexed": false,
          "internalType": "uint256",
          "name": "_fromTokenId",
          "type": "uint256"
        },
        {
          "indexed": false,
          "internalType": "uint256",
          "name": "_toTokenId",
          "type": "uint256"
        }
      ],
      "name": "BatchMetadataUpdate",
      "type": "event"
    },
    {
      "anonymous": false,
      "inputs": [
        {
          "indexed": false,
          "internalType": "uint256",
          "name": "_tokenId",
          "type": "uint256"
        }
      ],
      "name": "MetadataUpdate",
      "type": "event"
    },
    {
      "anonymous": false,
      "inputs": [
        {
          "indexed": true,
          "internalType": "address",
          "name": "previousOwner",
          "type": "address"
        },
        {
          "indexed": true,
          "internalType": "address",
          "name": "newOwner",
          "type": "address"
        }
      ],
      "name": "OwnershipTransferred",
      "type": "event"
    },
    {
      "anonymous": false,
      "inputs": [
        {
          "indexed": true,
          "internalType": "address",
          "name": "from",
          "type": "address"
        },
        {
          "indexed": true,
          "internalType": "address",
          "name": "to",
          "type": "address"
        },
        {
          "indexed": true,
          "internalType": "uint256",
          "name": "tokenId",
          "type": "uint256"
        }
      ],
      "name": "Transfer",
      "type": "event"
    },
    {
      "inputs": [
        {
          "internalType": "address",
          "name": "to",
          "type": "address"
        },
        {
          "internalType": "uint256",
          "name": "tokenId",
          "type": "uint256"
        }
      ],
      "name": "approve",
      "outputs": [],
      "stateMutability": "nonpayable",
      "type": "function"
    },
    {
      "inputs": [
        {
          "internalType": "address",
          "name": "owner",
          "type": "address"
        }
      ],
      "name": "balanceOf",
      "outputs": [
        {
          "internalType": "uint256",
          "name": "",
          "type": "uint256"
        }
      ],
      "stateMutability": "view",
      "type": "function"
    },
    {
      "inputs": [
        {
          "internalType": "uint256",
          "name": "tokenId",
          "type": "uint256"
        }
      ],
      "name": "getApproved",
      "outputs": [
        {
          "internalType": "address",
          "name": "",
          "type": "address"
        }
      ],
      "stateMutability": "view",
      "type": "function"
    },
    {
      "inputs": [
        {
          "internalType": "address",
          "name": "owner",
          "type": "address"
        },
        {
          "internalType": "address",
          "name": "operator",
          "type": "address"
        }
      ],
      "name": "isApprovedForAll",
      "outputs": [
        {
          "internalType": "bool",
          "name": "",
          "type": "bool"
        }
      ],
      "stateMutability": "view",
      "type": "function"
    },
    {
      "inputs": [],
      "name": "name",
      "outputs": [
        {
          "internalType": "string",
          "name": "",
          "type": "string"
        }
      ],
      "stateMutability": "view",
      "type": "function"
    },
    {
      "inputs": [],
      "name": "owner",
      "outputs": [
        {
          "internalType": "address",
          "name": "",
          "type": "address"
        }
      ],
      "stateMutability": "view",
      "type": "function"
    },
    {
      "inputs": [
        {
          "internalType": "uint256",
          "name": "tokenId",
          "type": "uint256"
        }
      ],
      "name": "ownerOf",
      "outputs": [
        {
          "internalType": "address",
          "name": "",
          "type": "address"
        }
      ],
      "stateMutability": "view",
      "type": "function"
    },
    {
      "inputs": [],
      "name": "renounceOwnership",
      "outputs": [],
      "stateMutability": "nonpayable",
      "type": "function"
    },
    {
      "inputs": [
        {
          "internalType": "address",
          "name": "to",
          "type": "address"
        },
        {
          "internalType": "string",
          "name": "uri",
          "type": "string"
        }
      ],
      "name": "safeMint",
      "outputs": [],
      "stateMutability": "nonpayable",
      "type": "function"
    },
    {
      "inputs": [
        {
          "internalType": "address",
          "name": "from",
          "type": "address"
        },
        {
          "internalType": "address",
          "name": "to",
          "type": "address"
        },
        {
          "internalType": "uint256",
          "name": "tokenId",
          "type": "uint256"
        }
      ],
      "name": "safeTransferFrom",
      "outputs": [],
      "stateMutability": "nonpayable",
      "type": "function"
    },
    {
      "inputs": [
        {
          "internalType": "address",
          "name": "from",
          "type": "address"
        },
        {
          "internalType": "address",
          "name": "to",
          "type": "address"
        },
        {
          "internalType": "uint256",
          "name": "tokenId",
          "type": "uint256"
        },
        {
          "internalType": "bytes",
          "name": "data",
          "type": "bytes"
        }
      ],
      "name": "safeTransferFrom",
      "outputs": [],
      "stateMutability": "nonpayable",
      "type": "function"
    },
    {
      "inputs": [
        {
          "internalType": "address",
          "name": "operator",
          "type": "address"
        },
        {
          "internalType": "bool",
          "name": "approved",
          "type": "bool"
        }
      ],
      "name": "setApprovalForAll",
      "outputs": [],
      "stateMutability": "nonpayable",
      "type": "function"
    },
    {
      "inputs": [
        {
          "internalType": "bytes4",
          "name": "interfaceId",
          "type": "bytes4"
        }
      ],
      "name": "supportsInterface",
      "outputs": [
        {
          "internalType": "bool",
          "name": "",
          "type": "bool"
        }
      ],
      "stateMutability": "view",
      "type": "function"
    },
    {
      "inputs": [],
      "name": "symbol",
      "outputs": [
        {
          "internalType": "string",
          "name": "",
          "type": "string"
        }
      ],
      "stateMutability": "view",
      "type": "function"
    },
    {
      "inputs": [
        {
          "internalType": "uint256",
          "name": "tokenId",
          "type": "uint256"
        }
      ],
      "name": "tokenURI",
      "outputs": [
        {
          "internalType": "string",
          "name": "",
          "type": "string"
        }
      ],
      "stateMutability": "view",
      "type": "function"
    },
    {
      "inputs": [],
      "name": "totalSupply",
      "outputs": [
        {
          "internalType": "uint256",
          "name": "",
          "type": "uint256"
        }
      ],
      "stateMutability": "view",
      "type": "function"
    },
    {
      "inputs": [
        {
          "internalType": "address",
          "name": "from",
          "type": "address"
        },
        {
          "internalType": "address",
          "name": "to",
          "type": "address"
        },
        {
          "internalType": "uint256",
          "name": "tokenId",
          "type": "uint256"
        }
      ],
      "name": "transferFrom",
      "outputs": [],
      "stateMutability": "nonpayable",
      "type": "function"
    },
    {
      "inputs": [
        {
          "internalType": "address",
          "name": "newOwner",
          "type": "address"
        }
      ],
      "name": "transferOwnership",
      "outputs": [],
      "stateMutability": "nonpayable",
      "type": "function"
    }
  ],
  "bytecode": "0x60806040523480156200001157600080fd5b50336040518060400160405280600581526020017f4d794e46540000000000000000000000000000000000000000000000000000008152506040518060400160405280600481526020017f4d4e465400000000000000000000000000000000000000000000000000000000815250816000908162000090919062000472565b508060019081620000a2919062000472565b505050600073ffffffffffffffffffffffffffffffffffffffff168173ffffffffffffffffffffffffffffffffffffffff16036200011a5760006040517f1e4fbdf70000000000000000000000000000000000000000000000000000000081526004016200011191906200059e565b60405180910390fd5b6200012b816200013260201b60201c565b50620005bb565b6000600760009054906101000a900473ffffffffffffffffffffffffffffffffffffffff16905081600760006101000a81548173ffffffffffffffffffffffffffffffffffffffff021916908373ffffffffffffffffffffffffffffffffffffffff1602179055508173ffffffffffffffffffffffffffffffffffffffff168173ffffffffffffffffffffffffffffffffffffffff167f8be0079c531659141344cd1fd0a4f28419497f9722a3daafe3b4186f6b6457e060405160405180910390a35050565b600081519050919050565b7f4e487b7100000000000000000000000000000000000000000000000000000000600052604160045260246000fd5b7f4e487b7100000000000000000000000000000000000000000000000000000000600052602260045260246000fd5b600060028204905060018216806200027a57607f821691505b60208210810362000290576200028f62000232565b5b50919050565b60008190508160005260206000209050919050565b60006020601f8301049050919050565b600082821b905092915050565b600060088302620002fa7fffffffffffffffffffffffffffffffffffffffffffffffffffffffffffffffff82620002bb565b620003068683620002bb565b95508019841693508086168417925050509392505050565b6000819050919050565b6000819050919050565b6000620003536200034d62000347846200031e565b62000328565b6200031e565b9050919050565b6000819050919050565b6200036f8362000332565b620003876200037e826200035a565b848454620002c8565b825550505050565b600090565b6200039e6200038f565b620003ab81848462000364565b505050565b5b81811015620003d357620003c760008262000394565b600181019050620003b1565b5050565b601f8211156200042257620003ec8162000296565b620003f784620002ab565b8101602085101562000407578190505b6200041f6200041685620002ab565b830182620003b0565b50505b505050565b600082821c905092915050565b6000620004476000198460080262000427565b1980831691505092915050565b600062000462838362000434565b9150826002028217905092915050565b6200047d82620001f8565b67ffffffffffffffff81111562000499576200049862000203565b5b620004a5825462000261565b620004b2828285620003d7565b600060209050601f831160018114620004ea5760008415620004d5578287015190505b620004e1858262000454565b86555062000551565b601f198416620004fa8662000296565b60005b828110156200052457848901518255600182019150602085019450602081019050620004fd565b8683101562000544578489015162000540601f89168262000434565b8355505b6001600288020188555050505b505050505050565b600073ffffffffffffffffffffffffffffffffffffffff82169050919050565b6000620005868262000559565b9050919050565b620005988162000579565b82525050565b6000602082019050620005b560008301846200058d565b92915050565b61269b80620005cb6000396000f3fe608060405234801561001057600080fd5b50600436106101165760003560e01c8063715018a6116100a2578063b88d4fde11610071578063b88d4fde146102cd578063c87b56dd146102e9578063d204c45e14610319578063e985e9c514610335578063f2fde38b1461036557610116565b8063715018a61461026b5780638da5cb5b1461027557806395d89b4114610293578063a22cb465146102b157610116565b806318160ddd116100e957806318160ddd146101b557806323b872dd146101d357806342842e0e146101ef5780636352211e1461020b57806370a082311461023b57610116565b806301ffc9a71461011b57806306fdde031461014b578063081812fc14610169578063095ea7b314610199575b600080fd5b61013560048036038101906101309190611af3565b610381565b6040516101429190611b3b565b60405180910390f35b6101536103e2565b6040516101609190611be6565b60405180910390f35b610183600480360381019061017e9190611c3e565b610474565b6040516101909190611cac565b60405180910390f35b6101b360048036038101906101ae9190611cf3565b610490565b005b6101bd6104a6565b6040516101ca9190611d42565b60405180910390f35b6101ed60048036038101906101e89190611d5d565b6104b0565b005b61020960048036038101906102049190611d5d565b6105b2565b005b61022560048036038101906102209190611c3e565b6105d2565b6040516102329190611cac565b60405180910390f35b61025560048036038101906102509190611db0565b6105e4565b6040516102629190611d42565b60405180910390f35b61027361069e565b005b61027d6106b2565b60405161028a9190611cac565b60405180910390f35b61029b6106dc565b6040516102a89190611be6565b60405180910390f35b6102cb60048036038101906102c69190611e09565b61076e565b005b6102e760048036038101906102e29190611f7e565b610784565b005b61030360048036038101906102fe9190611c3e565b6107a9565b6040516103109190611be6565b60405180910390f35b610333600480360381019061032e91906120a2565b6108bc565b005b61034f600480360381019061034a91906120fe565b6108fc565b60405161035c9190611b3b565b60405180910390f35b61037f600480360381019061037a9190611db0565b610990565b005b6000634906490660e01b7bffffffffffffffffffffffffffffffffffffffffffffffffffffffff1916827bffffffffffffffffffffffffffffffffffffffffffffffffffffffff191614806103db57506103da82610a16565b5b9050919050565b6060600080546103f19061216d565b80601f016020809104026020016040519081016040528092919081815260200182805461041d9061216d565b801561046a5780601f1061043f5761010080835404028352916020019161046a565b820191906000526020600020905b81548152906001019060200180831161044d57829003601f168201915b5050505050905090565b600061047f82610af8565b5061048982610b80565b9050919050565b6104a2828261049d610bbd565b610bc5565b5050565b6000600854905090565b600073ffffffffffffffffffffffffffffffffffffffff168273ffffffffffffffffffffffffffffffffffffffff16036105225760006040517f64a0ae920000000000000000000000000000000000000000000000000000000081526004016105199190611cac565b60405180910390fd5b60006105368383610531610bbd565b610bd7565b90508373ffffffffffffffffffffffffffffffffffffffff168173ffffffffffffffffffffffffffffffffffffffff16146105ac578382826040517f64283d7b0000000000000000000000000000000000000000000000000000000081526004016105a39392919061219e565b60405180910390fd5b50505050565b6105cd83838360405180602001604052806000815250610784565b505050565b60006105dd82610af8565b9050919050565b60008073ffffffffffffffffffffffffffffffffffffffff168273ffffffffffffffffffffffffffffffffffffffff16036106575760006040517f89c62b6400000000000000000000000000000000000000000000000000000000815260040161064e9190611cac565b60405180910390fd5b600360008373ffffffffffffffffffffffffffffffffffffffff1673ffffffffffffffffffffffffffffffffffffffff168152602001908152602001600020549050919050565b6106a6610df1565b6106b06000610e78565b565b6000600760009054906101000a900473ffffffffffffffffffffffffffffffffffffffff16905090565b6060600180546106eb9061216d565b80601f01602080910402602001604051908101604052809291908181526020018280546107179061216d565b80156107645780601f1061073957610100808354040283529160200191610764565b820191906000526020600020905b81548152906001019060200180831161074757829003601f168201915b5050505050905090565b610780610779610bbd565b8383610f3e565b5050565b61078f8484846104b0565b6107a361079a610bbd565b858585856110ad565b50505050565b60606107b482610af8565b5060006006600084815260200190815260200160002080546107d59061216d565b80601f01602080910402602001604051908101604052809291908181526020018280546108019061216d565b801561084e5780601f106108235761010080835404028352916020019161084e565b820191906000526020600020905b81548152906001019060200180831161083157829003601f168201915b50505050509050600061085f61125e565b905060008151036108745781925050506108b7565b6000825111156108a9578082604051602001610891929190612211565b604051602081830303815290604052925050506108b7565b6108b284611275565b925050505b919050565b6108c4610df1565b60006008549050600860008154809291906108de90612264565b91905055506108ed83826112de565b6108f781836112fc565b505050565b6000600560008473ffffffffffffffffffffffffffffffffffffffff1673ffffffffffffffffffffffffffffffffffffffff16815260200190815260200160002060008373ffffffffffffffffffffffffffffffffffffffff1673ffffffffffffffffffffffffffffffffffffffff16815260200190815260200160002060009054906101000a900460ff16905092915050565b610998610df1565b600073ffffffffffffffffffffffffffffffffffffffff168173ffffffffffffffffffffffffffffffffffffffff1603610a0a5760006040517f1e4fbdf7000000000000000000000000000000000000000000000000000000008152600401610a019190611cac565b60405180910390fd5b610a1381610e78565b50565b60007f80ac58cd000000000000000000000000000000000000000000000000000000007bffffffffffffffffffffffffffffffffffffffffffffffffffffffff1916827bffffffffffffffffffffffffffffffffffffffffffffffffffffffff19161480610ae157507f5b5e139f000000000000000000000000000000000000000000000000000000007bffffffffffffffffffffffffffffffffffffffffffffffffffffffff1916827bffffffffffffffffffffffffffffffffffffffffffffffffffffffff1916145b80610af15750610af082611358565b5b9050919050565b600080610b04836113c2565b9050600073ffffffffffffffffffffffffffffffffffffffff168173ffffffffffffffffffffffffffffffffffffffff1603610b7757826040517f7e273289000000000000000000000000000000000000000000000000000000008152600401610b6e9190611d42565b60405180910390fd5b80915050919050565b60006004600083815260200190815260200160002060009054906101000a900473ffffffffffffffffffffffffffffffffffffffff169050919050565b600033905090565b610bd283838360016113ff565b505050565b600080610be3846113c2565b9050600073ffffffffffffffffffffffffffffffffffffffff168373ffffffffffffffffffffffffffffffffffffffff1614610c2557610c248184866115c4565b5b600073ffffffffffffffffffffffffffffffffffffffff168173ffffffffffffffffffffffffffffffffffffffff1614610cb657610c676000856000806113ff565b6001600360008373ffffffffffffffffffffffffffffffffffffffff1673ffffffffffffffffffffffffffffffffffffffff168152602001908152602001600020600082825403925050819055505b600073ffffffffffffffffffffffffffffffffffffffff168573ffffffffffffffffffffffffffffffffffffffff1614610d39576001600360008773ffffffffffffffffffffffffffffffffffffffff1673ffffffffffffffffffffffffffffffffffffffff168152602001908152602001600020600082825401925050819055505b846002600086815260200190815260200160002060006101000a81548173ffffffffffffffffffffffffffffffffffffffff021916908373ffffffffffffffffffffffffffffffffffffffff160217905550838573ffffffffffffffffffffffffffffffffffffffff168273ffffffffffffffffffffffffffffffffffffffff167fddf252ad1be2c89b69c2b068fc378daa952ba7f163c4a11628f55a4df523b3ef60405160405180910390a4809150509392505050565b610df9610bbd565b73ffffffffffffffffffffffffffffffffffffffff16610e176106b2565b73ffffffffffffffffffffffffffffffffffffffff1614610e7657610e3a610bbd565b6040517f118cdaa7000000000000000000000000000000000000000000000000000000008152600401610e6d9190611cac565b60405180910390fd5b565b6000600760009054906101000a900473ffffffffffffffffffffffffffffffffffffffff16905081600760006101000a81548173ffffffffffffffffffffffffffffffffffffffff021916908373ffffffffffffffffffffffffffffffffffffffff1602179055508173ffffffffffffffffffffffffffffffffffffffff168173ffffffffffffffffffffffffffffffffffffffff167f8be0079c531659141344cd1fd0a4f28419497f9722a3daafe3b4186f6b6457e060405160405180910390a35050565b600073ffffffffffffffffffffffffffffffffffffffff168273ffffffffffffffffffffffffffffffffffffffff1603610faf57816040517f5b08ba18000000000000000000000000000000000000000000000000000000008152600401610fa69190611cac565b60405180910390fd5b80600560008573ffffffffffffffffffffffffffffffffffffffff1673ffffffffffffffffffffffffffffffffffffffff16815260200190815260200160002060008473ffffffffffffffffffffffffffffffffffffffff1673ffffffffffffffffffffffffffffffffffffffff16815260200190815260200160002060006101000a81548160ff0219169083151502179055508173ffffffffffffffffffffffffffffffffffffffff168373ffffffffffffffffffffffffffffffffffffffff167f17307eab39ab6107e8899845ad3d59bd9653f200f220920489ca2b5937696c31836040516110a09190611b3b565b60405180910390a3505050565b60008373ffffffffffffffffffffffffffffffffffffffff163b1115611257578273ffffffffffffffffffffffffffffffffffffffff1663150b7a02868685856040518563ffffffff1660e01b815260040161110c9493929190612301565b6020604051808303816000875af192505050801561114857506040513d601f19601f820116820180604052508101906111459190612362565b60015b6111cc573d8060008114611178576040519150601f19603f3d011682016040523d82523d6000602084013e61117d565b606091505b5060008151036111c457836040517f64a0ae920000000000000000000000000000000000000000000000000000000081526004016111bb9190611cac565b60405180910390fd5b805181602001fd5b63150b7a0260e01b7bffffffffffffffffffffffffffffffffffffffffffffffffffffffff1916817bffffffffffffffffffffffffffffffffffffffffffffffffffffffff19161461125557836040517f64a0ae9200000000000000000000000000000000000000000000000000000000815260040161124c9190611cac565b60405180910390fd5b505b5050505050565b606060405180602001604052806000815250905090565b606061128082610af8565b50600061128b61125e565b905060008151116112ab57604051806020016040528060008152506112d6565b806112b584611688565b6040516020016112c6929190612211565b6040516020818303038152906040525b915050919050565b6112f8828260405180602001604052806000815250611756565b5050565b8060066000848152602001908152602001600020908161131c919061253b565b507ff8e1a15aba9398e019f0b49df1a4fde98ee17ae345cb5f6b5e2c27f5033e8ce78260405161134c9190611d42565b60405180910390a15050565b60007f01ffc9a7000000000000000000000000000000000000000000000000000000007bffffffffffffffffffffffffffffffffffffffffffffffffffffffff1916827bffffffffffffffffffffffffffffffffffffffffffffffffffffffff1916149050919050565b60006002600083815260200190815260200160002060009054906101000a900473ffffffffffffffffffffffffffffffffffffffff169050919050565b80806114385750600073ffffffffffffffffffffffffffffffffffffffff168273ffffffffffffffffffffffffffffffffffffffff1614155b1561156c57600061144884610af8565b9050600073ffffffffffffffffffffffffffffffffffffffff168373ffffffffffffffffffffffffffffffffffffffff16141580156114b357508273ffffffffffffffffffffffffffffffffffffffff168173ffffffffffffffffffffffffffffffffffffffff1614155b80156114c657506114c481846108fc565b155b1561150857826040517fa9fbf51f0000000000000000000000000000000000000000000000000000000081526004016114ff9190611cac565b60405180910390fd5b811561156a57838573ffffffffffffffffffffffffffffffffffffffff168273ffffffffffffffffffffffffffffffffffffffff167f8c5be1e5ebec7d5bd14f71427d1e84f3dd0314c0f7b2291e5b200ac8c7c3b92560405160405180910390a45b505b836004600085815260200190815260200160002060006101000a81548173ffffffffffffffffffffffffffffffffffffffff021916908373ffffffffffffffffffffffffffffffffffffffff16021790555050505050565b6115cf83838361177a565b61168357600073ffffffffffffffffffffffffffffffffffffffff168373ffffffffffffffffffffffffffffffffffffffff160361164457806040517f7e27328900000000000000000000000000000000000000000000000000000000815260040161163b9190611d42565b60405180910390fd5b81816040517f177e802f00000000000000000000000000000000000000000000000000000000815260040161167a92919061260d565b60405180910390fd5b505050565b6060600060016116978461183b565b01905060008167ffffffffffffffff8111156116b6576116b5611e53565b5b6040519080825280601f01601f1916602001820160405280156116e85781602001600182028036833780820191505090505b509050600082602001820190505b60011561174b578080600190039150507f3031323334353637383961626364656600000000000000000000000000000000600a86061a8153600a858161173f5761173e612636565b5b049450600085036116f6575b819350505050919050565b611760838361198e565b61177561176b610bbd565b60008585856110ad565b505050565b60008073ffffffffffffffffffffffffffffffffffffffff168373ffffffffffffffffffffffffffffffffffffffff161415801561183257508273ffffffffffffffffffffffffffffffffffffffff168473ffffffffffffffffffffffffffffffffffffffff1614806117f357506117f284846108fc565b5b8061183157508273ffffffffffffffffffffffffffffffffffffffff1661181983610b80565b73ffffffffffffffffffffffffffffffffffffffff16145b5b90509392505050565b600080600090507a184f03e93ff9f4daa797ed6e38ed64bf6a1f0100000000000000008310611899577a184f03e93ff9f4daa797ed6e38ed64bf6a1f010000000000000000838161188f5761188e612636565b5b0492506040810190505b6d04ee2d6d415b85acef810000000083106118d6576d04ee2d6d415b85acef810000000083816118cc576118cb612636565b5b0492506020810190505b662386f26fc10000831061190557662386f26fc1000083816118fb576118fa612636565b5b0492506010810190505b6305f5e100831061192e576305f5e100838161192457611923612636565b5b0492506008810190505b612710831061195357612710838161194957611948612636565b5b0492506004810190505b60648310611976576064838161196c5761196b612636565b5b0492506002810190505b600a8310611985576001810190505b80915050919050565b600073ffffffffffffffffffffffffffffffffffffffff168273ffffffffffffffffffffffffffffffffffffffff1603611a005760006040517f64a0ae920000000000000000000000000000000000000000000000000000000081526004016119f79190611cac565b60405180910390fd5b6000611a0e83836000610bd7565b9050600073ffffffffffffffffffffffffffffffffffffffff168173ffffffffffffffffffffffffffffffffffffffff1614611a825760006040517f73c6ac6e000000000000000000000000000000000000000000000000000000008152600401611a799190611cac565b60405180910390fd5b505050565b6000604051905090565b600080fd5b600080fd5b60007fffffffff0000000000000000000000000000000000000000000000000000000082169050919050565b611ad081611a9b565b8114611adb57600080fd5b50565b600081359050611aed81611ac7565b92915050565b600060208284031215611b0957611b08611a91565b5b6000611b1784828501611ade565b91505092915050565b60008115159050919050565b611b3581611b20565b82525050565b6000602082019050611b506000830184611b2c565b92915050565b600081519050919050565b600082825260208201905092915050565b60005b83811015611b90578082015181840152602081019050611b75565b60008484015250505050565b6000601f19601f8301169050919050565b6000611bb882611b56565b611bc28185611b61565b9350611bd2818560208601611b72565b611bdb81611b9c565b840191505092915050565b60006020820190508181036000830152611c008184611bad565b905092915050565b6000819050919050565b611c1b81611c08565b8114611c2657600080fd5b50565b600081359050611c3881611c12565b92915050565b600060208284031215611c5457611c53611a91565b5b6000611c6284828501611c29565b91505092915050565b600073ffffffffffffffffffffffffffffffffffffffff82169050919050565b6000611c9682611c6b565b9050919050565b611ca681611c8b565b82525050565b6000602082019050611cc16000830184611c9d565b92915050565b611cd081611c8b565b8114611cdb57600080fd5b50565b600081359050611ced81611cc7565b92915050565b60008060408385031215611d0a57611d09611a91565b5b6000611d1885828601611cde565b9250506020611d2985828601611c29565b9150509250929050565b611d3c81611c08565b82525050565b6000602082019050611d576000830184611d33565b92915050565b600080600060608486031215611d7657611d75611a91565b5b6000611d8486828701611cde565b9350506020611d9586828701611cde565b9250506040611da686828701611c29565b9150509250925092565b600060208284031215611dc657611dc5611a91565b5b6000611dd484828501611cde565b91505092915050565b611de681611b20565b8114611df157600080fd5b50565b600081359050611e0381611ddd565b92915050565b60008060408385031215611e2057611e1f611a91565b5b6000611e2e85828601611cde565b9250506020611e3f85828601611df4565b9150509250929050565b600080fd5b600080fd5b7f4e487b7100000000000000000000000000000000000000000000000000000000600052604160045260246000fd5b611e8b82611b9c565b810181811067ffffffffffffffff82111715611eaa57611ea9611e53565b5b80604052505050565b6000611ebd611a87565b9050611ec98282611e82565b919050565b600067ffffffffffffffff821115611ee957611ee8611e53565b5b611ef282611b9c565b9050602081019050919050565b82818337600083830152505050565b6000611f21611f1c84611ece565b611eb3565b905082815260208101848484011115611f3d57611f3c611e4e565b5b611f48848285611eff565b509392505050565b600082601f830112611f6557611f64611e49565b5b8135611f75848260208601611f0e565b91505092915050565b60008060008060808587031215611f9857611f97611a91565b5b6000611fa687828801611cde565b9450506020611fb787828801611cde565b9350506040611fc887828801611c29565b925050606085013567ffffffffffffffff811115611fe957611fe8611a96565b5b611ff587828801611f50565b91505092959194509250565b600067ffffffffffffffff82111561201c5761201b611e53565b5b61202582611b9c565b9050602081019050919050565b600061204561204084612001565b611eb3565b90508281526020810184848401111561206157612060611e4e565b5b61206c848285611eff565b509392505050565b600082601f83011261208957612088611e49565b5b8135612099848260208601612032565b91505092915050565b600080604083850312156120b9576120b8611a91565b5b60006120c785828601611cde565b925050602083013567ffffffffffffffff8111156120e8576120e7611a96565b5b6120f485828601612074565b9150509250929050565b6000806040838503121561211557612114611a91565b5b600061212385828601611cde565b925050602061213485828601611cde565b9150509250929050565b7f4e487b7100000000000000000000000000000000000000000000000000000000600052602260045260246000fd5b6000600282049050600182168061218557607f821691505b6020821081036121985761219761213e565b5b50919050565b60006060820190506121b36000830186611c9d565b6121c06020830185611d33565b6121cd6040830184611c9d565b949350505050565b600081905092915050565b60006121eb82611b56565b6121f581856121d5565b9350612205818560208601611b72565b80840191505092915050565b600061221d82856121e0565b915061222982846121e0565b91508190509392505050565b7f4e487b7100000000000000000000000000000000000000000000000000000000600052601160045260246000fd5b600061226f82611c08565b91507fffffffffffffffffffffffffffffffffffffffffffffffffffffffffffffffff82036122a1576122a0612235565b5b600182019050919050565b600081519050919050565b600082825260208201905092915050565b60006122d3826122ac565b6122dd81856122b7565b93506122ed818560208601611b72565b6122f681611b9c565b840191505092915050565b60006080820190506123166000830187611c9d565b6123236020830186611c9d565b6123306040830185611d33565b818103606083015261234281846122c8565b905095945050505050565b60008151905061235c81611ac7565b92915050565b60006020828403121561237857612377611a91565b5b60006123868482850161234d565b91505092915050565b60008190508160005260206000209050919050565b60006020601f8301049050919050565b600082821b905092915050565b6000600883026123f17fffffffffffffffffffffffffffffffffffffffffffffffffffffffffffffffff826123b4565b6123fb86836123b4565b95508019841693508086168417925050509392505050565b6000819050919050565b600061243861243361242e84611c08565b612413565b611c08565b9050919050565b6000819050919050565b6124528361241d565b61246661245e8261243f565b8484546123c1565b825550505050565b600090565b61247b61246e565b612486818484612449565b505050565b5b818110156124aa5761249f600082612473565b60018101905061248c565b5050565b601f8211156124ef576124c08161238f565b6124c9846123a4565b810160208510156124d8578190505b6124ec6124e4856123a4565b83018261248b565b50505b505050565b600082821c905092915050565b6000612512600019846008026124f4565b1980831691505092915050565b600061252b8383612501565b9150826002028217905092915050565b61254482611b56565b67ffffffffffffffff81111561255d5761255c611e53565b5b612567825461216d565b6125728282856124ae565b600060209050601f8311600181146125a55760008415612593578287015190505b61259d858261251f565b865550612605565b601f1984166125b38661238f565b60005b828110156125db578489015182556001820191506020850194506020810190506125b6565b868310156125f857848901516125f4601f891682612501565b8355505b6001600288020188555050505b505050505050565b60006040820190506126226000830185611c9d565b61262f6020830184611d33565b9392505050565b7f4e487b7100000000000000000000000000000000000000000000000000000000600052601260045260246000fdfea2646970667358221220886dc056fa25cfd642996dcc86e17dac3cc3703ae53ddf8ea00c7ad1b7484d5064736f6c63430008140033",
  "linkReferences": {},
  "deployedLinkReferences": {}
}