{
  "_format": "hh-sol-artifact-1",
  "contractName": "NFTMarketplace",
  "sourceName": "contracts/NFT.sol",
  "abi": [
    {
      "inputs": [],
      "stateMutability": "nonpayable",
      "type": "constructor"
    },
    {
      "inputs": [
        {
          "internalType": "address",
          "name": "sender",
          "type": "address"
        },
        {
          "internalType": "uint256",
          "name": "tokenId",
          "type": "uint256"
        },
        {
          "internalType": "address",
          "name": "owner",
          "type": "address"
        }
      ],
      "name": "ERC721IncorrectOwner",
      "type": "error"
    },
    {
      "inputs": [
        {
          "internalType": "address",
          "name": "operator",
          "type": "address"
        },
        {
          "internalType": "uint256",
          "name": "tokenId",
          "type": "uint256"
        }
      ],
      "name": "ERC721InsufficientApproval",
      "type": "error"
    },
    {
      "inputs": [
        {
          "internalType": "address",
          "name": "approver",
          "type": "address"
        }
      ],
      "name": "ERC721InvalidApprover",
      "type": "error"
    },
    {
      "inputs": [
        {
          "internalType": "address",
          "name": "operator",
          "type": "address"
        }
      ],
      "name": "ERC721InvalidOperator",
      "type": "error"
    },
    {
      "inputs": [
        {
          "internalType": "address",
          "name": "owner",
          "type": "address"
        }
      ],
      "name": "ERC721InvalidOwner",
      "type": "error"
    },
    {
      "inputs": [
        {
          "internalType": "address",
          "name": "receiver",
          "type": "address"
        }
      ],
      "name": "ERC721InvalidReceiver",
      "type": "error"
    },
    {
      "inputs": [
        {
          "internalType": "address",
          "name": "sender",
          "type": "address"
        }
      ],
      "name": "ERC721InvalidSender",
      "type": "error"
    },
    {
      "inputs": [
        {
          "internalType": "uint256",
          "name": "tokenId",
          "type": "uint256"
        }
      ],
      "name": "ERC721NonexistentToken",
      "type": "error"
    },
    {
      "anonymous": false,
      "inputs": [
        {
          "indexed": true,
          "internalType": "address",
          "name": "owner",
          "type": "address"
        },
        {
          "indexed": true,
          "internalType": "address",
          "name": "approved",
          "type": "address"
        },
        {
          "indexed": true,
          "internalType": "uint256",
          "name": "tokenId",
          "type": "uint256"
        }
      ],
      "name": "Approval",
      "type": "event"
    },
    {
      "anonymous": false,
      "inputs": [
        {
          "indexed": true,
          "internalType": "address",
          "name": "owner",
          "type": "address"
        },
        {
          "indexed": true,
          "internalType": "address",
          "name": "operator",
          "type": "address"
        },
        {
          "indexed": false,
          "internalType": "bool",
          "name": "approved",
          "type": "bool"
        }
      ],
      "name": "ApprovalForAll",
      "type": "event"
    },
    {
      "anonymous": false,
      "inputs": [
        {
          "indexed": false,
          "internalType": "uint256",
          "name": "_fromTokenId",
          "type": "uint256"
        },
        {
          "indexed": false,
          "internalType": "uint256",
          "name": "_toTokenId",
          "type": "uint256"
        }
      ],
      "name": "BatchMetadataUpdate",
      "type": "event"
    },
    {
      "anonymous": false,
      "inputs": [
        {
          "indexed": false,
          "internalType": "uint256",
          "name": "_tokenId",
          "type": "uint256"
        }
      ],
      "name": "MetadataUpdate",
      "type": "event"
    },
    {
      "anonymous": false,
      "inputs": [
        {
          "indexed": true,
          "internalType": "address",
          "name": "from",
          "type": "address"
        },
        {
          "indexed": true,
          "internalType": "address",
          "name": "to",
          "type": "address"
        },
        {
          "indexed": true,
          "internalType": "uint256",
          "name": "tokenId",
          "type": "uint256"
        }
      ],
      "name": "Transfer",
      "type": "event"
    },
    {
      "anonymous": false,
      "inputs": [
        {
          "indexed": true,
          "internalType": "uint256",
          "name": "tokenId",
          "type": "uint256"
        },
        {
          "indexed": false,
          "internalType": "address",
          "name": "seller",
          "type": "address"
        },
        {
          "indexed": false,
          "internalType": "address",
          "name": "owner",
          "type": "address"
        },
        {
          "indexed": false,
          "internalType": "uint256",
          "name": "price",
          "type": "uint256"
        },
        {
          "indexed": false,
          "internalType": "bool",
          "name": "sold",
          "type": "bool"
        }
      ],
      "name": "idMarketItemCreated",
      "type": "event"
    },
    {
      "inputs": [
        {
          "internalType": "address",
          "name": "to",
          "type": "address"
        },
        {
          "internalType": "uint256",
          "name": "tokenId",
          "type": "uint256"
        }
      ],
      "name": "approve",
      "outputs": [],
      "stateMutability": "nonpayable",
      "type": "function"
    },
    {
      "inputs": [
        {
          "internalType": "address",
          "name": "owner",
          "type": "address"
        }
      ],
      "name": "balanceOf",
      "outputs": [
        {
          "internalType": "uint256",
          "name": "",
          "type": "uint256"
        }
      ],
      "stateMutability": "view",
      "type": "function"
    },
    {
      "inputs": [
        {
          "internalType": "uint256",
          "name": "tokenId",
          "type": "uint256"
        }
      ],
      "name": "createMarketSale",
      "outputs": [],
      "stateMutability": "payable",
      "type": "function"
    },
    {
      "inputs": [
        {
          "internalType": "string",
          "name": "tokenURI",
          "type": "string"
        },
        {
          "internalType": "uint256",
          "name": "price",
          "type": "uint256"
        }
      ],
      "name": "createToken",
      "outputs": [
        {
          "internalType": "uint256",
          "name": "",
          "type": "uint256"
        }
      ],
      "stateMutability": "payable",
      "type": "function"
    },
    {
      "inputs": [],
      "name": "fetchItemsListed",
      "outputs": [
        {
          "components": [
            {
              "internalType": "uint256",
              "name": "tokenId",
              "type": "uint256"
            },
            {
              "internalType": "address payable",
              "name": "seller",
              "type": "address"
            },
            {
              "internalType": "address payable",
              "name": "owner",
              "type": "address"
            },
            {
              "internalType": "uint256",
              "name": "price",
              "type": "uint256"
            },
            {
              "internalType": "bool",
              "name": "sold",
              "type": "bool"
            }
          ],
          "internalType": "struct NFTMarketplace.MarketItem[]",
          "name": "",
          "type": "tuple[]"
        }
      ],
      "stateMutability": "view",
      "type": "function"
    },
    {
      "inputs": [],
      "name": "fetchMarketItem",
      "outputs": [
        {
          "components": [
            {
              "internalType": "uint256",
              "name": "tokenId",
              "type": "uint256"
            },
            {
              "internalType": "address payable",
              "name": "seller",
              "type": "address"
            },
            {
              "internalType": "address payable",
              "name": "owner",
              "type": "address"
            },
            {
              "internalType": "uint256",
              "name": "price",
              "type": "uint256"
            },
            {
              "internalType": "bool",
              "name": "sold",
              "type": "bool"
            }
          ],
          "internalType": "struct NFTMarketplace.MarketItem[]",
          "name": "",
          "type": "tuple[]"
        }
      ],
      "stateMutability": "view",
      "type": "function"
    },
    {
      "inputs": [],
      "name": "fetchMyNFT",
      "outputs": [
        {
          "components": [
            {
              "internalType": "uint256",
              "name": "tokenId",
              "type": "uint256"
            },
            {
              "internalType": "address payable",
              "name": "seller",
              "type": "address"
            },
            {
              "internalType": "address payable",
              "name": "owner",
              "type": "address"
            },
            {
              "internalType": "uint256",
              "name": "price",
              "type": "uint256"
            },
            {
              "internalType": "bool",
              "name": "sold",
              "type": "bool"
            }
          ],
          "internalType": "struct NFTMarketplace.MarketItem[]",
          "name": "",
          "type": "tuple[]"
        }
      ],
      "stateMutability": "view",
      "type": "function"
    },
    {
      "inputs": [
        {
          "internalType": "uint256",
          "name": "tokenId",
          "type": "uint256"
        }
      ],
      "name": "getApproved",
      "outputs": [
        {
          "internalType": "address",
          "name": "",
          "type": "address"
        }
      ],
      "stateMutability": "view",
      "type": "function"
    },
    {
      "inputs": [],
      "name": "getListingPrice",
      "outputs": [
        {
          "internalType": "uint256",
          "name": "",
          "type": "uint256"
        }
      ],
      "stateMutability": "view",
      "type": "function"
    },
    {
      "inputs": [
        {
          "internalType": "address",
          "name": "owner",
          "type": "address"
        },
        {
          "internalType": "address",
          "name": "operator",
          "type": "address"
        }
      ],
      "name": "isApprovedForAll",
      "outputs": [
        {
          "internalType": "bool",
          "name": "",
          "type": "bool"
        }
      ],
      "stateMutability": "view",
      "type": "function"
    },
    {
      "inputs": [],
      "name": "name",
      "outputs": [
        {
          "internalType": "string",
          "name": "",
          "type": "string"
        }
      ],
      "stateMutability": "view",
      "type": "function"
    },
    {
      "inputs": [
        {
          "internalType": "uint256",
          "name": "tokenId",
          "type": "uint256"
        }
      ],
      "name": "ownerOf",
      "outputs": [
        {
          "internalType": "address",
          "name": "",
          "type": "address"
        }
      ],
      "stateMutability": "view",
      "type": "function"
    },
    {
      "inputs": [
        {
          "internalType": "uint256",
          "name": "tokenId",
          "type": "uint256"
        },
        {
          "internalType": "uint256",
          "name": "price",
          "type": "uint256"
        }
      ],
      "name": "reSellToken",
      "outputs": [],
      "stateMutability": "payable",
      "type": "function"
    },
    {
      "inputs": [
        {
          "internalType": "address",
          "name": "from",
          "type": "address"
        },
        {
          "internalType": "address",
          "name": "to",
          "type": "address"
        },
        {
          "internalType": "uint256",
          "name": "tokenId",
          "type": "uint256"
        }
      ],
      "name": "safeTransferFrom",
      "outputs": [],
      "stateMutability": "nonpayable",
      "type": "function"
    },
    {
      "inputs": [
        {
          "internalType": "address",
          "name": "from",
          "type": "address"
        },
        {
          "internalType": "address",
          "name": "to",
          "type": "address"
        },
        {
          "internalType": "uint256",
          "name": "tokenId",
          "type": "uint256"
        },
        {
          "internalType": "bytes",
          "name": "data",
          "type": "bytes"
        }
      ],
      "name": "safeTransferFrom",
      "outputs": [],
      "stateMutability": "nonpayable",
      "type": "function"
    },
    {
      "inputs": [
        {
          "internalType": "address",
          "name": "operator",
          "type": "address"
        },
        {
          "internalType": "bool",
          "name": "approved",
          "type": "bool"
        }
      ],
      "name": "setApprovalForAll",
      "outputs": [],
      "stateMutability": "nonpayable",
      "type": "function"
    },
    {
      "inputs": [
        {
          "internalType": "bytes4",
          "name": "interfaceId",
          "type": "bytes4"
        }
      ],
      "name": "supportsInterface",
      "outputs": [
        {
          "internalType": "bool",
          "name": "",
          "type": "bool"
        }
      ],
      "stateMutability": "view",
      "type": "function"
    },
    {
      "inputs": [],
      "name": "symbol",
      "outputs": [
        {
          "internalType": "string",
          "name": "",
          "type": "string"
        }
      ],
      "stateMutability": "view",
      "type": "function"
    },
    {
      "inputs": [
        {
          "internalType": "uint256",
          "name": "tokenId",
          "type": "uint256"
        }
      ],
      "name": "tokenURI",
      "outputs": [
        {
          "internalType": "string",
          "name": "",
          "type": "string"
        }
      ],
      "stateMutability": "view",
      "type": "function"
    },
    {
      "inputs": [
        {
          "internalType": "address",
          "name": "from",
          "type": "address"
        },
        {
          "internalType": "address",
          "name": "to",
          "type": "address"
        },
        {
          "internalType": "uint256",
          "name": "tokenId",
          "type": "uint256"
        }
      ],
      "name": "transferFrom",
      "outputs": [],
      "stateMutability": "nonpayable",
      "type": "function"
    },
    {
      "inputs": [
        {
          "internalType": "uint256",
          "name": "_ListingPrice",
          "type": "uint256"
        }
      ],
      "name": "updateListingPrice",
      "outputs": [],
      "stateMutability": "payable",
      "type": "function"
    }
  ],
  "bytecode": "0x60806040526605543df729c0006009553480156200001c57600080fd5b506040518060400160405280600d81526020017f4e465420436f6c6c6374696f6e000000000000000000000000000000000000008152506040518060400160405280600481526020017f4e4654430000000000000000000000000000000000000000000000000000000081525081600090816200009a919062000355565b508060019081620000ac919062000355565b5050503373ffffffffffffffffffffffffffffffffffffffff16600a60009054906101000a905050506200043c565b600081519050919050565b7f4e487b7100000000000000000000000000000000000000000000000000000000600052604160045260246000fd5b7f4e487b7100000000000000000000000000000000000000000000000000000000600052602260045260246000fd5b600060028204905060018216806200015d57607f821691505b60208210810362000173576200017262000115565b5b50919050565b60008190508160005260206000209050919050565b60006020601f8301049050919050565b600082821b905092915050565b600060088302620001dd7fffffffffffffffffffffffffffffffffffffffffffffffffffffffffffffffff826200019e565b620001e986836200019e565b95508019841693508086168417925050509392505050565b6000819050919050565b6000819050919050565b600062000236620002306200022a8462000201565b6200020b565b62000201565b9050919050565b6000819050919050565b620002528362000215565b6200026a62000261826200023d565b848454620001ab565b825550505050565b600090565b6200028162000272565b6200028e81848462000247565b505050565b5b81811015620002b657620002aa60008262000277565b60018101905062000294565b5050565b601f8211156200030557620002cf8162000179565b620002da846200018e565b81016020851015620002ea578190505b62000302620002f9856200018e565b83018262000293565b50505b505050565b600082821c905092915050565b60006200032a600019846008026200030a565b1980831691505092915050565b600062000345838362000317565b9150826002028217905092915050565b6200036082620000db565b67ffffffffffffffff8111156200037c576200037b620000e6565b5b62000388825462000144565b62000395828285620002ba565b600060209050601f831160018114620003cd5760008415620003b8578287015190505b620003c4858262000337565b86555062000434565b601f198416620003dd8662000179565b60005b828110156200040757848901518255600182019150602085019450602081019050620003e0565b8683101562000427578489015162000423601f89168262000317565b8355505b6001600288020188555050505b505050505050565b613d07806200044c6000396000f3fe60806040526004361061012a5760003560e01c806372b3b620116100ab578063ae677aa31161006f578063ae677aa3146103ea578063b88d4fde14610406578063be9af5361461042f578063c18763f71461044b578063c87b56dd14610476578063e985e9c5146104b35761012a565b806372b3b6201461031f57806385535b251461034f5780638fafd0211461036b57806395d89b4114610396578063a22cb465146103c15761012a565b806323b872dd116100f257806323b872dd1461022857806342842e0e1461025157806345f8fa801461027a5780636352211e146102a557806370a08231146102e25761012a565b806301ffc9a71461012f57806306fdde031461016c578063081812fc14610197578063095ea7b3146101d457806312e85585146101fd575b600080fd5b34801561013b57600080fd5b5061015660048036038101906101519190612b65565b6104f0565b6040516101639190612bad565b60405180910390f35b34801561017857600080fd5b50610181610551565b60405161018e9190612c58565b60405180910390f35b3480156101a357600080fd5b506101be60048036038101906101b99190612cb0565b6105e3565b6040516101cb9190612d1e565b60405180910390f35b3480156101e057600080fd5b506101fb60048036038101906101f69190612d65565b6105ff565b005b34801561020957600080fd5b50610212610615565b60405161021f9190612db4565b60405180910390f35b34801561023457600080fd5b5061024f600480360381019061024a9190612dcf565b61061f565b005b34801561025d57600080fd5b5061027860048036038101906102739190612dcf565b610721565b005b34801561028657600080fd5b5061028f610741565b60405161029c9190612f78565b60405180910390f35b3480156102b157600080fd5b506102cc60048036038101906102c79190612cb0565b610a2d565b6040516102d99190612d1e565b60405180910390f35b3480156102ee57600080fd5b5061030960048036038101906103049190612f9a565b610a3f565b6040516103169190612db4565b60405180910390f35b610339600480360381019061033491906130fc565b610af9565b6040516103469190612db4565b60405180910390f35b61036960048036038101906103649190613158565b610b3b565b005b34801561037757600080fd5b50610380610d30565b60405161038d9190612f78565b60405180910390f35b3480156103a257600080fd5b506103ab610f98565b6040516103b89190612c58565b60405180910390f35b3480156103cd57600080fd5b506103e860048036038101906103e391906131c4565b61102a565b005b61040460048036038101906103ff9190612cb0565b611040565b005b34801561041257600080fd5b5061042d600480360381019061042891906132a5565b6110da565b005b61044960048036038101906104449190612cb0565b6110ff565b005b34801561045757600080fd5b50610460611337565b60405161046d9190612f78565b60405180910390f35b34801561048257600080fd5b5061049d60048036038101906104989190612cb0565b611623565b6040516104aa9190612c58565b60405180910390f35b3480156104bf57600080fd5b506104da60048036038101906104d59190613328565b611736565b6040516104e79190612bad565b60405180910390f35b6000634906490660e01b7bffffffffffffffffffffffffffffffffffffffffffffffffffffffff1916827bffffffffffffffffffffffffffffffffffffffffffffffffffffffff1916148061054a5750610549826117ca565b5b9050919050565b60606000805461056090613397565b80601f016020809104026020016040519081016040528092919081815260200182805461058c90613397565b80156105d95780601f106105ae576101008083540402835291602001916105d9565b820191906000526020600020905b8154815290600101906020018083116105bc57829003601f168201915b5050505050905090565b60006105ee826118ac565b506105f882611934565b9050919050565b610611828261060c611971565b611979565b5050565b6000600954905090565b600073ffffffffffffffffffffffffffffffffffffffff168273ffffffffffffffffffffffffffffffffffffffff16036106915760006040517f64a0ae920000000000000000000000000000000000000000000000000000000081526004016106889190612d1e565b60405180910390fd5b60006106a583836106a0611971565b61198b565b90508373ffffffffffffffffffffffffffffffffffffffff168173ffffffffffffffffffffffffffffffffffffffff161461071b578382826040517f64283d7b000000000000000000000000000000000000000000000000000000008152600401610712939291906133c8565b60405180910390fd5b50505050565b61073c838383604051806020016040528060008152506110da565b505050565b6060600061074f6007611ba5565b905060008060005b838110156107f7573373ffffffffffffffffffffffffffffffffffffffff16600b6000600184610787919061342e565b815260200190815260200160002060010160009054906101000a900473ffffffffffffffffffffffffffffffffffffffff1673ffffffffffffffffffffffffffffffffffffffff16036107e4576001836107e1919061342e565b92505b80806107ef90613462565b915050610757565b5060008267ffffffffffffffff81111561081457610813612fd1565b5b60405190808252806020026020018201604052801561084d57816020015b61083a612a9c565b8152602001906001900390816108325790505b50905060005b84811015610a22573373ffffffffffffffffffffffffffffffffffffffff16600b6000600184610883919061342e565b815260200190815260200160002060010160009054906101000a900473ffffffffffffffffffffffffffffffffffffffff1673ffffffffffffffffffffffffffffffffffffffff1603610a0f5760006001826108df919061342e565b90506000600b60008381526020019081526020016000209050806040518060a0016040529081600082015481526020016001820160009054906101000a900473ffffffffffffffffffffffffffffffffffffffff1673ffffffffffffffffffffffffffffffffffffffff1673ffffffffffffffffffffffffffffffffffffffff1681526020016002820160009054906101000a900473ffffffffffffffffffffffffffffffffffffffff1673ffffffffffffffffffffffffffffffffffffffff1673ffffffffffffffffffffffffffffffffffffffff168152602001600382015481526020016004820160009054906101000a900460ff1615151515815250508486815181106109f2576109f16134aa565b5b6020026020010181905250600185610a0a919061342e565b945050505b8080610a1a90613462565b915050610853565b508094505050505090565b6000610a38826118ac565b9050919050565b60008073ffffffffffffffffffffffffffffffffffffffff168273ffffffffffffffffffffffffffffffffffffffff1603610ab25760006040517f89c62b64000000000000000000000000000000000000000000000000000000008152600401610aa99190612d1e565b60405180910390fd5b600360008373ffffffffffffffffffffffffffffffffffffffff1673ffffffffffffffffffffffffffffffffffffffff168152602001908152602001600020549050919050565b6000610b056007611bb3565b6000610b116007611ba5565b9050610b1d3382611bc9565b610b278185611cc2565b610b318184611d1e565b8091505092915050565b3373ffffffffffffffffffffffffffffffffffffffff16600b600084815260200190815260200160002060020160009054906101000a900473ffffffffffffffffffffffffffffffffffffffff1673ffffffffffffffffffffffffffffffffffffffff1614610bdf576040517f08c379a0000000000000000000000000000000000000000000000000000000008152600401610bd69061354b565b60405180910390fd5b6009543414610c23576040517f08c379a0000000000000000000000000000000000000000000000000000000008152600401610c1a906135b7565b60405180910390fd5b6000600b600084815260200190815260200160002060040160006101000a81548160ff02191690831515021790555080600b60008481526020019081526020016000206003018190555033600b600084815260200190815260200160002060010160006101000a81548173ffffffffffffffffffffffffffffffffffffffff021916908373ffffffffffffffffffffffffffffffffffffffff16021790555030600b600084815260200190815260200160002060020160006101000a81548173ffffffffffffffffffffffffffffffffffffffff021916908373ffffffffffffffffffffffffffffffffffffffff160217905550610d216008611f21565b610d2c333084611f7d565b5050565b60606000610d3e6007611ba5565b90506000610d4c6008611ba5565b610d566007611ba5565b610d6091906135d7565b90506000808267ffffffffffffffff811115610d7f57610d7e612fd1565b5b604051908082528060200260200182016040528015610db857816020015b610da5612a9c565b815260200190600190039081610d9d5790505b50905060005b84811015610f8d573073ffffffffffffffffffffffffffffffffffffffff16600b6000600184610dee919061342e565b815260200190815260200160002060020160009054906101000a900473ffffffffffffffffffffffffffffffffffffffff1673ffffffffffffffffffffffffffffffffffffffff1603610f7a576000600182610e4a919061342e565b90506000600b60008381526020019081526020016000209050806040518060a0016040529081600082015481526020016001820160009054906101000a900473ffffffffffffffffffffffffffffffffffffffff1673ffffffffffffffffffffffffffffffffffffffff1673ffffffffffffffffffffffffffffffffffffffff1681526020016002820160009054906101000a900473ffffffffffffffffffffffffffffffffffffffff1673ffffffffffffffffffffffffffffffffffffffff1673ffffffffffffffffffffffffffffffffffffffff168152602001600382015481526020016004820160009054906101000a900460ff161515151581525050848681518110610f5d57610f5c6134aa565b5b6020026020010181905250600185610f75919061342e565b945050505b8080610f8590613462565b915050610dbe565b508094505050505090565b606060018054610fa790613397565b80601f0160208091040260200160405190810160405280929190818152602001828054610fd390613397565b80156110205780601f10610ff557610100808354040283529160200191611020565b820191906000526020600020905b81548152906001019060200180831161100357829003601f168201915b5050505050905090565b61103c611035611971565b83836120ea565b5050565b600a60009054906101000a900473ffffffffffffffffffffffffffffffffffffffff1673ffffffffffffffffffffffffffffffffffffffff163373ffffffffffffffffffffffffffffffffffffffff16146110d0576040517f08c379a00000000000000000000000000000000000000000000000000000000081526004016110c790613657565b60405180910390fd5b8060098190555050565b6110e584848461061f565b6110f96110f0611971565b85858585612259565b50505050565b6000600b600083815260200190815260200160002060030154905080341461115c576040517f08c379a0000000000000000000000000000000000000000000000000000000008152600401611153906136e9565b60405180910390fd5b33600b600084815260200190815260200160002060020160006101000a81548173ffffffffffffffffffffffffffffffffffffffff021916908373ffffffffffffffffffffffffffffffffffffffff1602179055506001600b600084815260200190815260200160002060040160006101000a81548160ff0219169083151502179055506000600b600084815260200190815260200160002060020160006101000a81548173ffffffffffffffffffffffffffffffffffffffff021916908373ffffffffffffffffffffffffffffffffffffffff1602179055506112406008611bb3565b61124b303384611f7d565b600a60009054906101000a900473ffffffffffffffffffffffffffffffffffffffff1673ffffffffffffffffffffffffffffffffffffffff166108fc6009549081150290604051600060405180830381858888f193505050501580156112b5573d6000803e3d6000fd5b50600b600083815260200190815260200160002060010160009054906101000a900473ffffffffffffffffffffffffffffffffffffffff1673ffffffffffffffffffffffffffffffffffffffff166108fc349081150290604051600060405180830381858888f19350505050158015611332573d6000803e3d6000fd5b505050565b606060006113456007611ba5565b905060008060005b838110156113ed573373ffffffffffffffffffffffffffffffffffffffff16600b600060018461137d919061342e565b815260200190815260200160002060020160009054906101000a900473ffffffffffffffffffffffffffffffffffffffff1673ffffffffffffffffffffffffffffffffffffffff16036113da576001836113d7919061342e565b92505b80806113e590613462565b91505061134d565b5060008267ffffffffffffffff81111561140a57611409612fd1565b5b60405190808252806020026020018201604052801561144357816020015b611430612a9c565b8152602001906001900390816114285790505b50905060005b84811015611618573373ffffffffffffffffffffffffffffffffffffffff16600b6000600184611479919061342e565b815260200190815260200160002060020160009054906101000a900473ffffffffffffffffffffffffffffffffffffffff1673ffffffffffffffffffffffffffffffffffffffff16036116055760006001826114d5919061342e565b90506000600b60008381526020019081526020016000209050806040518060a0016040529081600082015481526020016001820160009054906101000a900473ffffffffffffffffffffffffffffffffffffffff1673ffffffffffffffffffffffffffffffffffffffff1673ffffffffffffffffffffffffffffffffffffffff1681526020016002820160009054906101000a900473ffffffffffffffffffffffffffffffffffffffff1673ffffffffffffffffffffffffffffffffffffffff1673ffffffffffffffffffffffffffffffffffffffff168152602001600382015481526020016004820160009054906101000a900460ff1615151515815250508486815181106115e8576115e76134aa565b5b6020026020010181905250600185611600919061342e565b945050505b808061161090613462565b915050611449565b508094505050505090565b606061162e826118ac565b50600060066000848152602001908152602001600020805461164f90613397565b80601f016020809104026020016040519081016040528092919081815260200182805461167b90613397565b80156116c85780601f1061169d576101008083540402835291602001916116c8565b820191906000526020600020905b8154815290600101906020018083116116ab57829003601f168201915b5050505050905060006116d961240a565b905060008151036116ee578192505050611731565b60008251111561172357808260405160200161170b929190613745565b60405160208183030381529060405292505050611731565b61172c84612421565b925050505b919050565b6000600560008473ffffffffffffffffffffffffffffffffffffffff1673ffffffffffffffffffffffffffffffffffffffff16815260200190815260200160002060008373ffffffffffffffffffffffffffffffffffffffff1673ffffffffffffffffffffffffffffffffffffffff16815260200190815260200160002060009054906101000a900460ff16905092915050565b60007f80ac58cd000000000000000000000000000000000000000000000000000000007bffffffffffffffffffffffffffffffffffffffffffffffffffffffff1916827bffffffffffffffffffffffffffffffffffffffffffffffffffffffff1916148061189557507f5b5e139f000000000000000000000000000000000000000000000000000000007bffffffffffffffffffffffffffffffffffffffffffffffffffffffff1916827bffffffffffffffffffffffffffffffffffffffffffffffffffffffff1916145b806118a557506118a48261248a565b5b9050919050565b6000806118b8836124f4565b9050600073ffffffffffffffffffffffffffffffffffffffff168173ffffffffffffffffffffffffffffffffffffffff160361192b57826040517f7e2732890000000000000000000000000000000000000000000000000000000081526004016119229190612db4565b60405180910390fd5b80915050919050565b60006004600083815260200190815260200160002060009054906101000a900473ffffffffffffffffffffffffffffffffffffffff169050919050565b600033905090565b6119868383836001612531565b505050565b600080611997846124f4565b9050600073ffffffffffffffffffffffffffffffffffffffff168373ffffffffffffffffffffffffffffffffffffffff16146119d9576119d88184866126f6565b5b600073ffffffffffffffffffffffffffffffffffffffff168173ffffffffffffffffffffffffffffffffffffffff1614611a6a57611a1b600085600080612531565b6001600360008373ffffffffffffffffffffffffffffffffffffffff1673ffffffffffffffffffffffffffffffffffffffff168152602001908152602001600020600082825403925050819055505b600073ffffffffffffffffffffffffffffffffffffffff168573ffffffffffffffffffffffffffffffffffffffff1614611aed576001600360008773ffffffffffffffffffffffffffffffffffffffff1673ffffffffffffffffffffffffffffffffffffffff168152602001908152602001600020600082825401925050819055505b846002600086815260200190815260200160002060006101000a81548173ffffffffffffffffffffffffffffffffffffffff021916908373ffffffffffffffffffffffffffffffffffffffff160217905550838573ffffffffffffffffffffffffffffffffffffffff168273ffffffffffffffffffffffffffffffffffffffff167fddf252ad1be2c89b69c2b068fc378daa952ba7f163c4a11628f55a4df523b3ef60405160405180910390a4809150509392505050565b600081600001549050919050565b6001816000016000828254019250508190555050565b600073ffffffffffffffffffffffffffffffffffffffff168273ffffffffffffffffffffffffffffffffffffffff1603611c3b5760006040517f64a0ae92000000000000000000000000000000000000000000000000000000008152600401611c329190612d1e565b60405180910390fd5b6000611c498383600061198b565b9050600073ffffffffffffffffffffffffffffffffffffffff168173ffffffffffffffffffffffffffffffffffffffff1614611cbd5760006040517f73c6ac6e000000000000000000000000000000000000000000000000000000008152600401611cb49190612d1e565b60405180910390fd5b505050565b80600660008481526020019081526020016000209081611ce29190613915565b507ff8e1a15aba9398e019f0b49df1a4fde98ee17ae345cb5f6b5e2c27f5033e8ce782604051611d129190612db4565b60405180910390a15050565b60008111611d61576040517f08c379a0000000000000000000000000000000000000000000000000000000008152600401611d5890613a33565b60405180910390fd5b6009543414611da5576040517f08c379a0000000000000000000000000000000000000000000000000000000008152600401611d9c90613ac5565b60405180910390fd5b6040518060a001604052808381526020013373ffffffffffffffffffffffffffffffffffffffff1681526020013073ffffffffffffffffffffffffffffffffffffffff16815260200182815260200160001515815250600b60008481526020019081526020016000206000820151816000015560208201518160010160006101000a81548173ffffffffffffffffffffffffffffffffffffffff021916908373ffffffffffffffffffffffffffffffffffffffff16021790555060408201518160020160006101000a81548173ffffffffffffffffffffffffffffffffffffffff021916908373ffffffffffffffffffffffffffffffffffffffff1602179055506060820151816003015560808201518160040160006101000a81548160ff021916908315150217905550905050611ede333084611f7d565b817fdebdb32cb5230ab727c9c361b16fdb2015df225c10e6a3e7f60ecd5dc5be45163330846000604051611f159493929190613ae5565b60405180910390a25050565b60008160000154905060008111611f6d576040517f08c379a0000000000000000000000000000000000000000000000000000000008152600401611f6490613b76565b60405180910390fd5b6001810382600001819055505050565b600073ffffffffffffffffffffffffffffffffffffffff168273ffffffffffffffffffffffffffffffffffffffff1603611fef5760006040517f64a0ae92000000000000000000000000000000000000000000000000000000008152600401611fe69190612d1e565b60405180910390fd5b6000611ffd8383600061198b565b9050600073ffffffffffffffffffffffffffffffffffffffff168173ffffffffffffffffffffffffffffffffffffffff160361207057816040517f7e2732890000000000000000000000000000000000000000000000000000000081526004016120679190612db4565b60405180910390fd5b8373ffffffffffffffffffffffffffffffffffffffff168173ffffffffffffffffffffffffffffffffffffffff16146120e4578382826040517f64283d7b0000000000000000000000000000000000000000000000000000000081526004016120db939291906133c8565b60405180910390fd5b50505050565b600073ffffffffffffffffffffffffffffffffffffffff168273ffffffffffffffffffffffffffffffffffffffff160361215b57816040517f5b08ba180000000000000000000000000000000000000000000000000000000081526004016121529190612d1e565b60405180910390fd5b80600560008573ffffffffffffffffffffffffffffffffffffffff1673ffffffffffffffffffffffffffffffffffffffff16815260200190815260200160002060008473ffffffffffffffffffffffffffffffffffffffff1673ffffffffffffffffffffffffffffffffffffffff16815260200190815260200160002060006101000a81548160ff0219169083151502179055508173ffffffffffffffffffffffffffffffffffffffff168373ffffffffffffffffffffffffffffffffffffffff167f17307eab39ab6107e8899845ad3d59bd9653f200f220920489ca2b5937696c318360405161224c9190612bad565b60405180910390a3505050565b60008373ffffffffffffffffffffffffffffffffffffffff163b1115612403578273ffffffffffffffffffffffffffffffffffffffff1663150b7a02868685856040518563ffffffff1660e01b81526004016122b89493929190613beb565b6020604051808303816000875af19250505080156122f457506040513d601f19601f820116820180604052508101906122f19190613c4c565b60015b612378573d8060008114612324576040519150601f19603f3d011682016040523d82523d6000602084013e612329565b606091505b50600081510361237057836040517f64a0ae920000000000000000000000000000000000000000000000000000000081526004016123679190612d1e565b60405180910390fd5b805181602001fd5b63150b7a0260e01b7bffffffffffffffffffffffffffffffffffffffffffffffffffffffff1916817bffffffffffffffffffffffffffffffffffffffffffffffffffffffff19161461240157836040517f64a0ae920000000000000000000000000000000000000000000000000000000081526004016123f89190612d1e565b60405180910390fd5b505b5050505050565b606060405180602001604052806000815250905090565b606061242c826118ac565b50600061243761240a565b905060008151116124575760405180602001604052806000815250612482565b80612461846127ba565b604051602001612472929190613745565b6040516020818303038152906040525b915050919050565b60007f01ffc9a7000000000000000000000000000000000000000000000000000000007bffffffffffffffffffffffffffffffffffffffffffffffffffffffff1916827bffffffffffffffffffffffffffffffffffffffffffffffffffffffff1916149050919050565b60006002600083815260200190815260200160002060009054906101000a900473ffffffffffffffffffffffffffffffffffffffff169050919050565b808061256a5750600073ffffffffffffffffffffffffffffffffffffffff168273ffffffffffffffffffffffffffffffffffffffff1614155b1561269e57600061257a846118ac565b9050600073ffffffffffffffffffffffffffffffffffffffff168373ffffffffffffffffffffffffffffffffffffffff16141580156125e557508273ffffffffffffffffffffffffffffffffffffffff168173ffffffffffffffffffffffffffffffffffffffff1614155b80156125f857506125f68184611736565b155b1561263a57826040517fa9fbf51f0000000000000000000000000000000000000000000000000000000081526004016126319190612d1e565b60405180910390fd5b811561269c57838573ffffffffffffffffffffffffffffffffffffffff168273ffffffffffffffffffffffffffffffffffffffff167f8c5be1e5ebec7d5bd14f71427d1e84f3dd0314c0f7b2291e5b200ac8c7c3b92560405160405180910390a45b505b836004600085815260200190815260200160002060006101000a81548173ffffffffffffffffffffffffffffffffffffffff021916908373ffffffffffffffffffffffffffffffffffffffff16021790555050505050565b612701838383612888565b6127b557600073ffffffffffffffffffffffffffffffffffffffff168373ffffffffffffffffffffffffffffffffffffffff160361277657806040517f7e27328900000000000000000000000000000000000000000000000000000000815260040161276d9190612db4565b60405180910390fd5b81816040517f177e802f0000000000000000000000000000000000000000000000000000000081526004016127ac929190613c79565b60405180910390fd5b505050565b6060600060016127c984612949565b01905060008167ffffffffffffffff8111156127e8576127e7612fd1565b5b6040519080825280601f01601f19166020018201604052801561281a5781602001600182028036833780820191505090505b509050600082602001820190505b60011561287d578080600190039150507f3031323334353637383961626364656600000000000000000000000000000000600a86061a8153600a858161287157612870613ca2565b5b04945060008503612828575b819350505050919050565b60008073ffffffffffffffffffffffffffffffffffffffff168373ffffffffffffffffffffffffffffffffffffffff161415801561294057508273ffffffffffffffffffffffffffffffffffffffff168473ffffffffffffffffffffffffffffffffffffffff16148061290157506129008484611736565b5b8061293f57508273ffffffffffffffffffffffffffffffffffffffff1661292783611934565b73ffffffffffffffffffffffffffffffffffffffff16145b5b90509392505050565b600080600090507a184f03e93ff9f4daa797ed6e38ed64bf6a1f01000000000000000083106129a7577a184f03e93ff9f4daa797ed6e38ed64bf6a1f010000000000000000838161299d5761299c613ca2565b5b0492506040810190505b6d04ee2d6d415b85acef810000000083106129e4576d04ee2d6d415b85acef810000000083816129da576129d9613ca2565b5b0492506020810190505b662386f26fc100008310612a1357662386f26fc100008381612a0957612a08613ca2565b5b0492506010810190505b6305f5e1008310612a3c576305f5e1008381612a3257612a31613ca2565b5b0492506008810190505b6127108310612a61576127108381612a5757612a56613ca2565b5b0492506004810190505b60648310612a845760648381612a7a57612a79613ca2565b5b0492506002810190505b600a8310612a93576001810190505b80915050919050565b6040518060a0016040528060008152602001600073ffffffffffffffffffffffffffffffffffffffff168152602001600073ffffffffffffffffffffffffffffffffffffffff168152602001600081526020016000151581525090565b6000604051905090565b600080fd5b600080fd5b60007fffffffff0000000000000000000000000000000000000000000000000000000082169050919050565b612b4281612b0d565b8114612b4d57600080fd5b50565b600081359050612b5f81612b39565b92915050565b600060208284031215612b7b57612b7a612b03565b5b6000612b8984828501612b50565b91505092915050565b60008115159050919050565b612ba781612b92565b82525050565b6000602082019050612bc26000830184612b9e565b92915050565b600081519050919050565b600082825260208201905092915050565b60005b83811015612c02578082015181840152602081019050612be7565b60008484015250505050565b6000601f19601f8301169050919050565b6000612c2a82612bc8565b612c348185612bd3565b9350612c44818560208601612be4565b612c4d81612c0e565b840191505092915050565b60006020820190508181036000830152612c728184612c1f565b905092915050565b6000819050919050565b612c8d81612c7a565b8114612c9857600080fd5b50565b600081359050612caa81612c84565b92915050565b600060208284031215612cc657612cc5612b03565b5b6000612cd484828501612c9b565b91505092915050565b600073ffffffffffffffffffffffffffffffffffffffff82169050919050565b6000612d0882612cdd565b9050919050565b612d1881612cfd565b82525050565b6000602082019050612d336000830184612d0f565b92915050565b612d4281612cfd565b8114612d4d57600080fd5b50565b600081359050612d5f81612d39565b92915050565b60008060408385031215612d7c57612d7b612b03565b5b6000612d8a85828601612d50565b9250506020612d9b85828601612c9b565b9150509250929050565b612dae81612c7a565b82525050565b6000602082019050612dc96000830184612da5565b92915050565b600080600060608486031215612de857612de7612b03565b5b6000612df686828701612d50565b9350506020612e0786828701612d50565b9250506040612e1886828701612c9b565b9150509250925092565b600081519050919050565b600082825260208201905092915050565b6000819050602082019050919050565b612e5781612c7a565b82525050565b6000612e6882612cdd565b9050919050565b612e7881612e5d565b82525050565b612e8781612b92565b82525050565b60a082016000820151612ea36000850182612e4e565b506020820151612eb66020850182612e6f565b506040820151612ec96040850182612e6f565b506060820151612edc6060850182612e4e565b506080820151612eef6080850182612e7e565b50505050565b6000612f018383612e8d565b60a08301905092915050565b6000602082019050919050565b6000612f2582612e22565b612f2f8185612e2d565b9350612f3a83612e3e565b8060005b83811015612f6b578151612f528882612ef5565b9750612f5d83612f0d565b925050600181019050612f3e565b5085935050505092915050565b60006020820190508181036000830152612f928184612f1a565b905092915050565b600060208284031215612fb057612faf612b03565b5b6000612fbe84828501612d50565b91505092915050565b600080fd5b600080fd5b7f4e487b7100000000000000000000000000000000000000000000000000000000600052604160045260246000fd5b61300982612c0e565b810181811067ffffffffffffffff8211171561302857613027612fd1565b5b80604052505050565b600061303b612af9565b90506130478282613000565b919050565b600067ffffffffffffffff82111561306757613066612fd1565b5b61307082612c0e565b9050602081019050919050565b82818337600083830152505050565b600061309f61309a8461304c565b613031565b9050828152602081018484840111156130bb576130ba612fcc565b5b6130c684828561307d565b509392505050565b600082601f8301126130e3576130e2612fc7565b5b81356130f384826020860161308c565b91505092915050565b6000806040838503121561311357613112612b03565b5b600083013567ffffffffffffffff81111561313157613130612b08565b5b61313d858286016130ce565b925050602061314e85828601612c9b565b9150509250929050565b6000806040838503121561316f5761316e612b03565b5b600061317d85828601612c9b565b925050602061318e85828601612c9b565b9150509250929050565b6131a181612b92565b81146131ac57600080fd5b50565b6000813590506131be81613198565b92915050565b600080604083850312156131db576131da612b03565b5b60006131e985828601612d50565b92505060206131fa858286016131af565b9150509250929050565b600067ffffffffffffffff82111561321f5761321e612fd1565b5b61322882612c0e565b9050602081019050919050565b600061324861324384613204565b613031565b90508281526020810184848401111561326457613263612fcc565b5b61326f84828561307d565b509392505050565b600082601f83011261328c5761328b612fc7565b5b813561329c848260208601613235565b91505092915050565b600080600080608085870312156132bf576132be612b03565b5b60006132cd87828801612d50565b94505060206132de87828801612d50565b93505060406132ef87828801612c9b565b925050606085013567ffffffffffffffff8111156133105761330f612b08565b5b61331c87828801613277565b91505092959194509250565b6000806040838503121561333f5761333e612b03565b5b600061334d85828601612d50565b925050602061335e85828601612d50565b9150509250929050565b7f4e487b7100000000000000000000000000000000000000000000000000000000600052602260045260246000fd5b600060028204905060018216806133af57607f821691505b6020821081036133c2576133c1613368565b5b50919050565b60006060820190506133dd6000830186612d0f565b6133ea6020830185612da5565b6133f76040830184612d0f565b949350505050565b7f4e487b7100000000000000000000000000000000000000000000000000000000600052601160045260246000fd5b600061343982612c7a565b915061344483612c7a565b925082820190508082111561345c5761345b6133ff565b5b92915050565b600061346d82612c7a565b91507fffffffffffffffffffffffffffffffffffffffffffffffffffffffffffffffff820361349f5761349e6133ff565b5b600182019050919050565b7f4e487b7100000000000000000000000000000000000000000000000000000000600052603260045260246000fd5b7f4f6e6c79206974656d206f776e65722063616e20646f2074686973206f70657260008201527f726174696f6e0000000000000000000000000000000000000000000000000000602082015250565b6000613535602683612bd3565b9150613540826134d9565b604082019050919050565b6000602082019050818103600083015261356481613528565b9050919050565b7f5072696365206d75737420626520657175616c00000000000000000000000000600082015250565b60006135a1601383612bd3565b91506135ac8261356b565b602082019050919050565b600060208201905081810360008301526135d081613594565b9050919050565b60006135e282612c7a565b91506135ed83612c7a565b9250828203905081811115613605576136046133ff565b5b92915050565b7f6f6e6c79206f776e65722063616e206368616e67652070726963652100000000600082015250565b6000613641601c83612bd3565b915061364c8261360b565b602082019050919050565b6000602082019050818103600083015261367081613634565b9050919050565b7f506c656173652073756d626974207468652061736b696e20707269636520746f60008201527f20636f6d706c6574650000000000000000000000000000000000000000000000602082015250565b60006136d3602983612bd3565b91506136de82613677565b604082019050919050565b60006020820190508181036000830152613702816136c6565b9050919050565b600081905092915050565b600061371f82612bc8565b6137298185613709565b9350613739818560208601612be4565b80840191505092915050565b60006137518285613714565b915061375d8284613714565b91508190509392505050565b60008190508160005260206000209050919050565b60006020601f8301049050919050565b600082821b905092915050565b6000600883026137cb7fffffffffffffffffffffffffffffffffffffffffffffffffffffffffffffffff8261378e565b6137d5868361378e565b95508019841693508086168417925050509392505050565b6000819050919050565b600061381261380d61380884612c7a565b6137ed565b612c7a565b9050919050565b6000819050919050565b61382c836137f7565b61384061383882613819565b84845461379b565b825550505050565b600090565b613855613848565b613860818484613823565b505050565b5b818110156138845761387960008261384d565b600181019050613866565b5050565b601f8211156138c95761389a81613769565b6138a38461377e565b810160208510156138b2578190505b6138c66138be8561377e565b830182613865565b50505b505050565b600082821c905092915050565b60006138ec600019846008026138ce565b1980831691505092915050565b600061390583836138db565b9150826002028217905092915050565b61391e82612bc8565b67ffffffffffffffff81111561393757613936612fd1565b5b6139418254613397565b61394c828285613888565b600060209050601f83116001811461397f576000841561396d578287015190505b61397785826138f9565b8655506139df565b601f19841661398d86613769565b60005b828110156139b557848901518255600182019150602085019450602081019050613990565b868310156139d257848901516139ce601f8916826138db565b8355505b6001600288020188555050505b505050505050565b7f7072696365206d757374206265206174206c6561737420310000000000000000600082015250565b6000613a1d601883612bd3565b9150613a28826139e7565b602082019050919050565b60006020820190508181036000830152613a4c81613a10565b9050919050565b7f5072696365206d75737420626520657175616c20746f206c697374696e67207060008201527f7269636521000000000000000000000000000000000000000000000000000000602082015250565b6000613aaf602583612bd3565b9150613aba82613a53565b604082019050919050565b60006020820190508181036000830152613ade81613aa2565b9050919050565b6000608082019050613afa6000830187612d0f565b613b076020830186612d0f565b613b146040830185612da5565b613b216060830184612b9e565b95945050505050565b7f436f756e7465723a2064656372656d656e74206f766572666c6f770000000000600082015250565b6000613b60601b83612bd3565b9150613b6b82613b2a565b602082019050919050565b60006020820190508181036000830152613b8f81613b53565b9050919050565b600081519050919050565b600082825260208201905092915050565b6000613bbd82613b96565b613bc78185613ba1565b9350613bd7818560208601612be4565b613be081612c0e565b840191505092915050565b6000608082019050613c006000830187612d0f565b613c0d6020830186612d0f565b613c1a6040830185612da5565b8181036060830152613c2c8184613bb2565b905095945050505050565b600081519050613c4681612b39565b92915050565b600060208284031215613c6257613c61612b03565b5b6000613c7084828501613c37565b91505092915050565b6000604082019050613c8e6000830185612d0f565b613c9b6020830184612da5565b9392505050565b7f4e487b7100000000000000000000000000000000000000000000000000000000600052601260045260246000fdfea2646970667358221220fa06e3e69fe327dca7d74ac95ea606635662330660c21c67f0d95b79e2697eb764736f6c63430008140033",
  "linkReferences": {},
  "deployedLinkReferences": {}
}